{
  "contractName": "Box",
  "abi": [
    {
      "anonymous": false,
      "inputs": [
        {
          "indexed": false,
          "internalType": "uint256",
          "name": "newValue",
          "type": "uint256"
        }
      ],
      "name": "ValueChanged",
      "type": "event"
    },
    {
      "inputs": [
        {
          "internalType": "uint256",
          "name": "newValue",
          "type": "uint256"
        }
      ],
      "name": "store",
      "outputs": [],
      "stateMutability": "nonpayable",
      "type": "function"
    },
    {
      "inputs": [],
      "name": "retrieve",
      "outputs": [
        {
          "internalType": "uint256",
          "name": "",
          "type": "uint256"
        }
      ],
      "stateMutability": "view",
      "type": "function",
      "constant": true
    }
  ],
  "bytecode": "0x608060405234801561001057600080fd5b5061017e806100206000396000f3fe608060405234801561001057600080fd5b50600436106100365760003560e01c80632e64cec11461003b5780636057361d14610059575b600080fd5b610043610075565b604051610050919061010c565b60405180910390f35b610073600480360381019061006e91906100d4565b61007e565b005b60008054905090565b806000819055507f93fe6d397c74fdf1402a8b72e47b68512f0510d7b98a4bc4cbdf6ac7108b3c59816040516100b4919061010c565b60405180910390a150565b6000813590506100ce81610131565b92915050565b6000602082840312156100e657600080fd5b60006100f4848285016100bf565b91505092915050565b61010681610127565b82525050565b600060208201905061012160008301846100fd565b92915050565b6000819050919050565b61013a81610127565b811461014557600080fd5b5056fea2646970667358221220c2b690b9d4a01fcd6e90500f9b58e252552600ad6ebde63bb2bfc865e3a84b9664736f6c63430008040033",
  "immutableReferences": {},
  "source": "// contracts/Box.sol\r\n// SPDX-License-Identifier: MIT\r\npragma solidity ^0.8.4;\r\n\r\ncontract Box {\r\n    uint256 private value;\r\n\r\n    // Emitted when the stored value changes\r\n    event ValueChanged(uint256 newValue);\r\n\r\n    // Stores a new value in the contract\r\n    function store(uint256 newValue) public {\r\n        value = newValue;\r\n        emit ValueChanged(newValue);\r\n    }\r\n\r\n    // Reads the last stored value\r\n    function retrieve() public view returns (uint256) {\r\n        return value;\r\n    }\r\n}",
  "sourcePath": "C:/Users/Arima/Desktop/project/proxy/contracts/Box.sol",
  "compiler": {
    "name": "solc",
    "version": "0.8.4+commit.c7e474f2.Emscripten.clang"
  },
  "schemaVersion": "3.4.1",
  "updatedAt": "2021-05-23T17:12:57.208Z",
  "networkType": "ethereum",
  "devdoc": {
    "kind": "dev",
    "methods": {},
    "version": 1
  },
  "userdoc": {
    "kind": "user",
    "methods": {},
    "version": 1
  }
}